{
	"MyContract.sol": {
		"MyContract": {
			"abi": [
				{
					"inputs": [],
					"name": "double",
					"outputs": [],
					"stateMutability": "nonpayable",
					"type": "function"
				},
				{
					"inputs": [],
					"name": "get",
					"outputs": [
						{
							"internalType": "uint256",
							"name": "",
							"type": "uint256"
						}
					],
					"stateMutability": "view",
					"type": "function"
				}
			],
			"devdoc": {
				"kind": "dev",
				"methods": {},
				"version": 1
			},
			"evm": {
				"assembly": "    /* \"MyContract.sol\":26:210  contract MyContract {... */\n  mstore(0x40, 0x80)\n    /* \"MyContract.sol\":68:69  1 */\n  0x01\n    /* \"MyContract.sol\":52:69  uint256 value = 1 */\n  0x00\n  sstore\n    /* \"MyContract.sol\":26:210  contract MyContract {... */\n  callvalue\n  dup1\n  iszero\n  tag_1\n  jumpi\n  0x00\n  dup1\n  revert\ntag_1:\n  pop\n  dataSize(sub_0)\n  dup1\n  dataOffset(sub_0)\n  0x00\n  codecopy\n  0x00\n  return\nstop\n\nsub_0: assembly {\n        /* \"MyContract.sol\":26:210  contract MyContract {... */\n      mstore(0x40, 0x80)\n      callvalue\n      dup1\n      iszero\n      tag_1\n      jumpi\n      0x00\n      dup1\n      revert\n    tag_1:\n      pop\n      jumpi(tag_2, lt(calldatasize, 0x04))\n      shr(0xe0, calldataload(0x00))\n      dup1\n      0x6d4ce63c\n      eq\n      tag_3\n      jumpi\n      dup1\n      0x8fdb7189\n      eq\n      tag_4\n      jumpi\n    tag_2:\n      0x00\n      dup1\n      revert\n        /* \"MyContract.sol\":76:150  function get() public view returns (uint256) {... */\n    tag_3:\n      tag_5\n      tag_6\n      jump\t// in\n    tag_5:\n      mload(0x40)\n      tag_7\n      swap2\n      swap1\n      tag_8\n      jump\t// in\n    tag_7:\n      mload(0x40)\n      dup1\n      swap2\n      sub\n      swap1\n      return\n        /* \"MyContract.sol\":156:208  function double() public {... */\n    tag_4:\n      tag_9\n      tag_10\n      jump\t// in\n    tag_9:\n      stop\n        /* \"MyContract.sol\":76:150  function get() public view returns (uint256) {... */\n    tag_6:\n        /* \"MyContract.sol\":112:119  uint256 */\n      0x00\n        /* \"MyContract.sol\":138:143  value */\n      dup1\n      sload\n        /* \"MyContract.sol\":131:143  return value */\n      swap1\n      pop\n        /* \"MyContract.sol\":76:150  function get() public view returns (uint256) {... */\n      swap1\n      jump\t// out\n        /* \"MyContract.sol\":156:208  function double() public {... */\n    tag_10:\n        /* \"MyContract.sol\":200:201  2 */\n      0x02\n        /* \"MyContract.sol\":191:196  value */\n      0x00\n      dup1\n        /* \"MyContract.sol\":191:201  value *= 2 */\n      dup3\n      dup3\n      sload\n      tag_13\n      swap2\n      swap1\n      tag_14\n      jump\t// in\n    tag_13:\n      swap3\n      pop\n      pop\n      dup2\n      swap1\n      sstore\n      pop\n        /* \"MyContract.sol\":156:208  function double() public {... */\n      jump\t// out\n        /* \"#utility.yul\":7:84   */\n    tag_15:\n        /* \"#utility.yul\":44:51   */\n      0x00\n        /* \"#utility.yul\":73:78   */\n      dup2\n        /* \"#utility.yul\":62:78   */\n      swap1\n      pop\n        /* \"#utility.yul\":7:84   */\n      swap2\n      swap1\n      pop\n      jump\t// out\n        /* \"#utility.yul\":90:208   */\n    tag_16:\n        /* \"#utility.yul\":177:201   */\n      tag_21\n        /* \"#utility.yul\":195:200   */\n      dup2\n        /* \"#utility.yul\":177:201   */\n      tag_15\n      jump\t// in\n    tag_21:\n        /* \"#utility.yul\":172:175   */\n      dup3\n        /* \"#utility.yul\":165:202   */\n      mstore\n        /* \"#utility.yul\":90:208   */\n      pop\n      pop\n      jump\t// out\n        /* \"#utility.yul\":214:436   */\n    tag_8:\n        /* \"#utility.yul\":307:311   */\n      0x00\n        /* \"#utility.yul\":345:347   */\n      0x20\n        /* \"#utility.yul\":334:343   */\n      dup3\n        /* \"#utility.yul\":330:348   */\n      add\n        /* \"#utility.yul\":322:348   */\n      swap1\n      pop\n        /* \"#utility.yul\":358:429   */\n      tag_23\n        /* \"#utility.yul\":426:427   */\n      0x00\n        /* \"#utility.yul\":415:424   */\n      dup4\n        /* \"#utility.yul\":411:428   */\n      add\n        /* \"#utility.yul\":402:408   */\n      dup5\n        /* \"#utility.yul\":358:429   */\n      tag_16\n      jump\t// in\n    tag_23:\n        /* \"#utility.yul\":214:436   */\n      swap3\n      swap2\n      pop\n      pop\n      jump\t// out\n        /* \"#utility.yul\":442:622   */\n    tag_17:\n        /* \"#utility.yul\":490:567   */\n      0x4e487b7100000000000000000000000000000000000000000000000000000000\n        /* \"#utility.yul\":487:488   */\n      0x00\n        /* \"#utility.yul\":480:568   */\n      mstore\n        /* \"#utility.yul\":587:591   */\n      0x11\n        /* \"#utility.yul\":584:585   */\n      0x04\n        /* \"#utility.yul\":577:592   */\n      mstore\n        /* \"#utility.yul\":611:615   */\n      0x24\n        /* \"#utility.yul\":608:609   */\n      0x00\n        /* \"#utility.yul\":601:616   */\n      revert\n        /* \"#utility.yul\":628:976   */\n    tag_14:\n        /* \"#utility.yul\":668:675   */\n      0x00\n        /* \"#utility.yul\":691:711   */\n      tag_26\n        /* \"#utility.yul\":709:710   */\n      dup3\n        /* \"#utility.yul\":691:711   */\n      tag_15\n      jump\t// in\n    tag_26:\n        /* \"#utility.yul\":686:711   */\n      swap2\n      pop\n        /* \"#utility.yul\":725:745   */\n      tag_27\n        /* \"#utility.yul\":743:744   */\n      dup4\n        /* \"#utility.yul\":725:745   */\n      tag_15\n      jump\t// in\n    tag_27:\n        /* \"#utility.yul\":720:745   */\n      swap3\n      pop\n        /* \"#utility.yul\":913:914   */\n      dup2\n        /* \"#utility.yul\":845:911   */\n      0xffffffffffffffffffffffffffffffffffffffffffffffffffffffffffffffff\n        /* \"#utility.yul\":841:915   */\n      div\n        /* \"#utility.yul\":838:839   */\n      dup4\n        /* \"#utility.yul\":835:916   */\n      gt\n        /* \"#utility.yul\":830:831   */\n      dup3\n        /* \"#utility.yul\":823:832   */\n      iszero\n        /* \"#utility.yul\":816:833   */\n      iszero\n        /* \"#utility.yul\":812:917   */\n      and\n        /* \"#utility.yul\":809:940   */\n      iszero\n      tag_28\n      jumpi\n        /* \"#utility.yul\":920:938   */\n      tag_29\n      tag_17\n      jump\t// in\n    tag_29:\n        /* \"#utility.yul\":809:940   */\n    tag_28:\n        /* \"#utility.yul\":968:969   */\n      dup3\n        /* \"#utility.yul\":965:966   */\n      dup3\n        /* \"#utility.yul\":961:970   */\n      mul\n        /* \"#utility.yul\":950:970   */\n      swap1\n      pop\n        /* \"#utility.yul\":628:976   */\n      swap3\n      swap2\n      pop\n      pop\n      jump\t// out\n\n    auxdata: 0xa2646970667358221220901c6edbf2af40f3f288bfddad72e0cf430c82355ca00ddff7a6e62e75f765ac64736f6c634300080f0033\n}\n",
				"bytecode": {
					"linkReferences": {},
					"object": "6080604052600160005534801561001557600080fd5b5061017a806100256000396000f3fe608060405234801561001057600080fd5b50600436106100365760003560e01c80636d4ce63c1461003b5780638fdb718914610059575b600080fd5b610043610063565b60405161005091906100a0565b60405180910390f35b61006161006c565b005b60008054905090565b600260008082825461007e91906100ea565b92505081905550565b6000819050919050565b61009a81610087565b82525050565b60006020820190506100b56000830184610091565b92915050565b7f4e487b7100000000000000000000000000000000000000000000000000000000600052601160045260246000fd5b60006100f582610087565b915061010083610087565b9250817fffffffffffffffffffffffffffffffffffffffffffffffffffffffffffffffff0483118215151615610139576101386100bb565b5b82820290509291505056fea2646970667358221220901c6edbf2af40f3f288bfddad72e0cf430c82355ca00ddff7a6e62e75f765ac64736f6c634300080f0033",
					"opcodes": "PUSH1 0x80 PUSH1 0x40 MSTORE PUSH1 0x1 PUSH1 0x0 SSTORE CALLVALUE DUP1 ISZERO PUSH2 0x15 JUMPI PUSH1 0x0 DUP1 REVERT JUMPDEST POP PUSH2 0x17A DUP1 PUSH2 0x25 PUSH1 0x0 CODECOPY PUSH1 0x0 RETURN INVALID PUSH1 0x80 PUSH1 0x40 MSTORE CALLVALUE DUP1 ISZERO PUSH2 0x10 JUMPI PUSH1 0x0 DUP1 REVERT JUMPDEST POP PUSH1 0x4 CALLDATASIZE LT PUSH2 0x36 JUMPI PUSH1 0x0 CALLDATALOAD PUSH1 0xE0 SHR DUP1 PUSH4 0x6D4CE63C EQ PUSH2 0x3B JUMPI DUP1 PUSH4 0x8FDB7189 EQ PUSH2 0x59 JUMPI JUMPDEST PUSH1 0x0 DUP1 REVERT JUMPDEST PUSH2 0x43 PUSH2 0x63 JUMP JUMPDEST PUSH1 0x40 MLOAD PUSH2 0x50 SWAP2 SWAP1 PUSH2 0xA0 JUMP JUMPDEST PUSH1 0x40 MLOAD DUP1 SWAP2 SUB SWAP1 RETURN JUMPDEST PUSH2 0x61 PUSH2 0x6C JUMP JUMPDEST STOP JUMPDEST PUSH1 0x0 DUP1 SLOAD SWAP1 POP SWAP1 JUMP JUMPDEST PUSH1 0x2 PUSH1 0x0 DUP1 DUP3 DUP3 SLOAD PUSH2 0x7E SWAP2 SWAP1 PUSH2 0xEA JUMP JUMPDEST SWAP3 POP POP DUP2 SWAP1 SSTORE POP JUMP JUMPDEST PUSH1 0x0 DUP2 SWAP1 POP SWAP2 SWAP1 POP JUMP JUMPDEST PUSH2 0x9A DUP2 PUSH2 0x87 JUMP JUMPDEST DUP3 MSTORE POP POP JUMP JUMPDEST PUSH1 0x0 PUSH1 0x20 DUP3 ADD SWAP1 POP PUSH2 0xB5 PUSH1 0x0 DUP4 ADD DUP5 PUSH2 0x91 JUMP JUMPDEST SWAP3 SWAP2 POP POP JUMP JUMPDEST PUSH32 0x4E487B7100000000000000000000000000000000000000000000000000000000 PUSH1 0x0 MSTORE PUSH1 0x11 PUSH1 0x4 MSTORE PUSH1 0x24 PUSH1 0x0 REVERT JUMPDEST PUSH1 0x0 PUSH2 0xF5 DUP3 PUSH2 0x87 JUMP JUMPDEST SWAP2 POP PUSH2 0x100 DUP4 PUSH2 0x87 JUMP JUMPDEST SWAP3 POP DUP2 PUSH32 0xFFFFFFFFFFFFFFFFFFFFFFFFFFFFFFFFFFFFFFFFFFFFFFFFFFFFFFFFFFFFFFFF DIV DUP4 GT DUP3 ISZERO ISZERO AND ISZERO PUSH2 0x139 JUMPI PUSH2 0x138 PUSH2 0xBB JUMP JUMPDEST JUMPDEST DUP3 DUP3 MUL SWAP1 POP SWAP3 SWAP2 POP POP JUMP INVALID LOG2 PUSH5 0x6970667358 0x22 SLT KECCAK256 SWAP1 SHR PUSH15 0xDBF2AF40F3F288BFDDAD72E0CF430C DUP3 CALLDATALOAD 0x5C LOG0 0xD 0xDF 0xF7 0xA6 0xE6 0x2E PUSH22 0xF765AC64736F6C634300080F00330000000000000000 "
				},
				"gasEstimates": {
					"creation": {
						"codeDepositCost": "75600",
						"executionCost": "22229",
						"totalCost": "97829"
					},
					"external": {
						"double()": "infinite",
						"get()": "2415"
					}
				},
				"methodIdentifiers": {
					"double()": "8fdb7189",
					"get()": "6d4ce63c"
				}
			},
			"storageLayout": {
				"storage": [
					{
						"astId": 4,
						"contract": "MyContract.sol:MyContract",
						"label": "value",
						"offset": 0,
						"slot": "0",
						"type": "t_uint256"
					}
				],
				"types": {
					"t_uint256": {
						"encoding": "inplace",
						"label": "uint256",
						"numberOfBytes": "32"
					}
				}
			},
			"userdoc": {
				"kind": "user",
				"methods": {},
				"version": 1
			}
		}
	}
}